{
  "contractName": "CryptoFunkMarket",
  "abi": [
    {
      "inputs": [
        {
          "internalType": "string",
          "name": "_name",
          "type": "string"
        },
        {
          "internalType": "string",
          "name": "_symbol",
          "type": "string"
        },
        {
          "internalType": "string",
          "name": "_imageHash",
          "type": "string"
        },
        {
          "internalType": "uint256",
          "name": "_totalSupply",
          "type": "uint256"
        }
      ],
      "payable": true,
      "stateMutability": "payable",
      "type": "constructor"
    },
    {
      "anonymous": false,
      "inputs": [
        {
          "indexed": true,
          "internalType": "address",
          "name": "to",
          "type": "address"
        },
        {
          "indexed": false,
          "internalType": "uint256",
          "name": "punkIndex",
          "type": "uint256"
        }
      ],
      "name": "Assign",
      "type": "event"
    },
    {
      "anonymous": false,
      "inputs": [
        {
          "indexed": true,
          "internalType": "uint256",
          "name": "punkIndex",
          "type": "uint256"
        },
        {
          "indexed": false,
          "internalType": "uint256",
          "name": "value",
          "type": "uint256"
        },
        {
          "indexed": true,
          "internalType": "address",
          "name": "fromAddress",
          "type": "address"
        }
      ],
      "name": "PunkBidEntered",
      "type": "event"
    },
    {
      "anonymous": false,
      "inputs": [
        {
          "indexed": true,
          "internalType": "uint256",
          "name": "punkIndex",
          "type": "uint256"
        },
        {
          "indexed": false,
          "internalType": "uint256",
          "name": "value",
          "type": "uint256"
        },
        {
          "indexed": true,
          "internalType": "address",
          "name": "fromAddress",
          "type": "address"
        }
      ],
      "name": "PunkBidWithdrawn",
      "type": "event"
    },
    {
      "anonymous": false,
      "inputs": [
        {
          "indexed": true,
          "internalType": "uint256",
          "name": "punkIndex",
          "type": "uint256"
        },
        {
          "indexed": false,
          "internalType": "uint256",
          "name": "value",
          "type": "uint256"
        },
        {
          "indexed": true,
          "internalType": "address",
          "name": "fromAddress",
          "type": "address"
        },
        {
          "indexed": true,
          "internalType": "address",
          "name": "toAddress",
          "type": "address"
        }
      ],
      "name": "PunkBought",
      "type": "event"
    },
    {
      "anonymous": false,
      "inputs": [
        {
          "indexed": true,
          "internalType": "uint256",
          "name": "punkIndex",
          "type": "uint256"
        }
      ],
      "name": "PunkNoLongerForSale",
      "type": "event"
    },
    {
      "anonymous": false,
      "inputs": [
        {
          "indexed": true,
          "internalType": "uint256",
          "name": "punkIndex",
          "type": "uint256"
        },
        {
          "indexed": false,
          "internalType": "uint256",
          "name": "minValue",
          "type": "uint256"
        },
        {
          "indexed": true,
          "internalType": "address",
          "name": "toAddress",
          "type": "address"
        }
      ],
      "name": "PunkOffered",
      "type": "event"
    },
    {
      "anonymous": false,
      "inputs": [
        {
          "indexed": true,
          "internalType": "address",
          "name": "from",
          "type": "address"
        },
        {
          "indexed": true,
          "internalType": "address",
          "name": "to",
          "type": "address"
        },
        {
          "indexed": false,
          "internalType": "uint256",
          "name": "punkIndex",
          "type": "uint256"
        }
      ],
      "name": "PunkTransfer",
      "type": "event"
    },
    {
      "anonymous": false,
      "inputs": [
        {
          "indexed": true,
          "internalType": "address",
          "name": "from",
          "type": "address"
        },
        {
          "indexed": true,
          "internalType": "address",
          "name": "to",
          "type": "address"
        },
        {
          "indexed": false,
          "internalType": "uint256",
          "name": "value",
          "type": "uint256"
        }
      ],
      "name": "Transfer",
      "type": "event"
    },
    {
      "constant": true,
      "inputs": [
        {
          "internalType": "address",
          "name": "",
          "type": "address"
        }
      ],
      "name": "balanceOf",
      "outputs": [
        {
          "internalType": "uint256",
          "name": "",
          "type": "uint256"
        }
      ],
      "payable": false,
      "stateMutability": "view",
      "type": "function"
    },
    {
      "constant": true,
      "inputs": [],
      "name": "decimals",
      "outputs": [
        {
          "internalType": "uint8",
          "name": "",
          "type": "uint8"
        }
      ],
      "payable": false,
      "stateMutability": "view",
      "type": "function"
    },
    {
      "constant": true,
      "inputs": [],
      "name": "imageHash",
      "outputs": [
        {
          "internalType": "string",
          "name": "",
          "type": "string"
        }
      ],
      "payable": false,
      "stateMutability": "view",
      "type": "function"
    },
    {
      "constant": true,
      "inputs": [],
      "name": "name",
      "outputs": [
        {
          "internalType": "string",
          "name": "",
          "type": "string"
        }
      ],
      "payable": false,
      "stateMutability": "view",
      "type": "function"
    },
    {
      "constant": true,
      "inputs": [
        {
          "internalType": "address",
          "name": "",
          "type": "address"
        }
      ],
      "name": "pendingWithdrawals",
      "outputs": [
        {
          "internalType": "uint256",
          "name": "",
          "type": "uint256"
        }
      ],
      "payable": false,
      "stateMutability": "view",
      "type": "function"
    },
    {
      "constant": true,
      "inputs": [
        {
          "internalType": "uint256",
          "name": "",
          "type": "uint256"
        }
      ],
      "name": "punkBids",
      "outputs": [
        {
          "internalType": "bool",
          "name": "hasBid",
          "type": "bool"
        },
        {
          "internalType": "uint256",
          "name": "punkIndex",
          "type": "uint256"
        },
        {
          "internalType": "address",
          "name": "bidder",
          "type": "address"
        },
        {
          "internalType": "uint256",
          "name": "value",
          "type": "uint256"
        }
      ],
      "payable": false,
      "stateMutability": "view",
      "type": "function"
    },
    {
      "constant": true,
      "inputs": [
        {
          "internalType": "uint256",
          "name": "",
          "type": "uint256"
        }
      ],
      "name": "punkIndexToAddress",
      "outputs": [
        {
          "internalType": "address",
          "name": "",
          "type": "address"
        }
      ],
      "payable": false,
      "stateMutability": "view",
      "type": "function"
    },
    {
      "constant": true,
      "inputs": [
        {
          "internalType": "uint256",
          "name": "",
          "type": "uint256"
        }
      ],
      "name": "punksOfferedForSale",
      "outputs": [
        {
          "internalType": "bool",
          "name": "isForSale",
          "type": "bool"
        },
        {
          "internalType": "uint256",
          "name": "punkIndex",
          "type": "uint256"
        },
        {
          "internalType": "address",
          "name": "seller",
          "type": "address"
        },
        {
          "internalType": "uint256",
          "name": "minValue",
          "type": "uint256"
        },
        {
          "internalType": "address",
          "name": "onlySellTo",
          "type": "address"
        }
      ],
      "payable": false,
      "stateMutability": "view",
      "type": "function"
    },
    {
      "constant": true,
      "inputs": [],
      "name": "punksRemainingToAssign",
      "outputs": [
        {
          "internalType": "uint256",
          "name": "",
          "type": "uint256"
        }
      ],
      "payable": false,
      "stateMutability": "view",
      "type": "function"
    },
    {
      "constant": true,
      "inputs": [],
      "name": "standard",
      "outputs": [
        {
          "internalType": "string",
          "name": "",
          "type": "string"
        }
      ],
      "payable": false,
      "stateMutability": "view",
      "type": "function"
    },
    {
      "constant": true,
      "inputs": [],
      "name": "symbol",
      "outputs": [
        {
          "internalType": "string",
          "name": "",
          "type": "string"
        }
      ],
      "payable": false,
      "stateMutability": "view",
      "type": "function"
    },
    {
      "constant": true,
      "inputs": [],
      "name": "totalSupply",
      "outputs": [
        {
          "internalType": "uint256",
          "name": "",
          "type": "uint256"
        }
      ],
      "payable": false,
      "stateMutability": "view",
      "type": "function"
    },
    {
      "constant": false,
      "inputs": [
        {
          "internalType": "uint256",
          "name": "punkIndex",
          "type": "uint256"
        }
      ],
      "name": "getPunk",
      "outputs": [],
      "payable": false,
      "stateMutability": "nonpayable",
      "type": "function"
    },
    {
      "constant": false,
      "inputs": [
        {
          "internalType": "address",
          "name": "to",
          "type": "address"
        },
        {
          "internalType": "uint256",
          "name": "punkIndex",
          "type": "uint256"
        }
      ],
      "name": "transferPunk",
      "outputs": [],
      "payable": false,
      "stateMutability": "nonpayable",
      "type": "function"
    },
    {
      "constant": false,
      "inputs": [
        {
          "internalType": "uint256",
          "name": "punkIndex",
          "type": "uint256"
        }
      ],
      "name": "punkNoLongerForSale",
      "outputs": [],
      "payable": false,
      "stateMutability": "nonpayable",
      "type": "function"
    },
    {
      "constant": false,
      "inputs": [
        {
          "internalType": "uint256",
          "name": "punkIndex",
          "type": "uint256"
        },
        {
          "internalType": "uint256",
          "name": "minSalePriceInWei",
          "type": "uint256"
        }
      ],
      "name": "offerPunkForSale",
      "outputs": [],
      "payable": false,
      "stateMutability": "nonpayable",
      "type": "function"
    },
    {
      "constant": false,
      "inputs": [
        {
          "internalType": "uint256",
          "name": "punkIndex",
          "type": "uint256"
        },
        {
          "internalType": "uint256",
          "name": "minSalePriceInWei",
          "type": "uint256"
        },
        {
          "internalType": "address",
          "name": "toAddress",
          "type": "address"
        }
      ],
      "name": "offerPunkForSaleToAddress",
      "outputs": [],
      "payable": false,
      "stateMutability": "nonpayable",
      "type": "function"
    },
    {
      "constant": false,
      "inputs": [
        {
          "internalType": "uint256",
          "name": "punkIndex",
          "type": "uint256"
        }
      ],
      "name": "buyPunk",
      "outputs": [],
      "payable": true,
      "stateMutability": "payable",
      "type": "function"
    },
    {
      "constant": false,
      "inputs": [],
      "name": "withdraw",
      "outputs": [],
      "payable": false,
      "stateMutability": "nonpayable",
      "type": "function"
    },
    {
      "constant": false,
      "inputs": [
        {
          "internalType": "uint256",
          "name": "punkIndex",
          "type": "uint256"
        }
      ],
      "name": "enterBidForPunk",
      "outputs": [],
      "payable": true,
      "stateMutability": "payable",
      "type": "function"
    },
    {
      "constant": false,
      "inputs": [
        {
          "internalType": "uint256",
          "name": "punkIndex",
          "type": "uint256"
        },
        {
          "internalType": "uint256",
          "name": "minPrice",
          "type": "uint256"
        }
      ],
      "name": "acceptBidForPunk",
      "outputs": [],
      "payable": false,
      "stateMutability": "nonpayable",
      "type": "function"
    },
    {
      "constant": false,
      "inputs": [
        {
          "internalType": "uint256",
          "name": "punkIndex",
          "type": "uint256"
        }
      ],
      "name": "withdrawBidForPunk",
      "outputs": [],
      "payable": false,
      "stateMutability": "nonpayable",
      "type": "function"
    }
  ],
  "bytecode": "0x60806040526040518060400160405280600b81526020017f43727970746f50756e6b73000000000000000000000000000000000000000000815250600290805190602001906200005192919062000386565b5060006007556040516200307f3803806200307f833981810160405260808110156200007c57600080fd5b81019080805160405193929190846401000000008211156200009d57600080fd5b83820191506020820185811115620000b457600080fd5b8251866001820283011164010000000082111715620000d257600080fd5b8083526020830192505050908051906020019080838360005b8381101562000108578082015181840152602081019050620000eb565b50505050905090810190601f168015620001365780820380516001836020036101000a031916815260200191505b50604052602001805160405193929190846401000000008211156200015a57600080fd5b838201915060208201858111156200017157600080fd5b82518660018202830111640100000000821117156200018f57600080fd5b8083526020830192505050908051906020019080838360005b83811015620001c5578082015181840152602081019050620001a8565b50505050905090810190601f168015620001f35780820380516001836020036101000a031916815260200191505b50604052602001805160405193929190846401000000008211156200021757600080fd5b838201915060208201858111156200022e57600080fd5b82518660018202830111640100000000821117156200024c57600080fd5b8083526020830192505050908051906020019080838360005b838110156200028257808201518184015260208101905062000265565b50505050905090810190601f168015620002b05780820380516001836020036101000a031916815260200191505b506040526020018051906020019092919050505033600160006101000a81548173ffffffffffffffffffffffffffffffffffffffff021916908373ffffffffffffffffffffffffffffffffffffffff1602179055508060068190555060065460078190555083600390805190602001906200032d92919062000386565b5082600490805190602001906200034692919062000386565b506000600560006101000a81548160ff021916908360ff16021790555081600090805190602001906200037b92919062000386565b505050505062000435565b828054600181600116156101000203166002900490600052602060002090601f016020900481019282601f10620003c957805160ff1916838001178555620003fa565b82800160010185558215620003fa579182015b82811115620003f9578251825591602001919060010190620003dc565b5b5090506200040991906200040d565b5090565b6200043291905b808211156200042e57600081600090555060010162000414565b5090565b90565b612c3a80620004456000396000f3fe6080604052600436106101355760003560e01c806370a08231116100ab578063bf31196f1161006f578063bf31196f1461075f578063c0d6ce63146107c4578063c44193c3146107ef578063c81d1d5b14610834578063f3f437031461086f578063f6eeff1e146108d457610135565b806370a08231146105a65780638264fe981461060b5780638b72a2ec1461063957806395d89b4114610694578063979bc6381461072457610135565b8063313ce567116100fd578063313ce5671461032f5780633ccfd60b1461036057806351605d801461037757806358178168146104075780635a3b7e42146104825780636e743fa91461051257610135565b806306fdde031461013a578063088f11f3146101ca578063091dbfd21461029157806318160ddd146102bf57806323165b75146102ea575b600080fd5b34801561014657600080fd5b5061014f61090f565b6040518080602001828103825283818151815260200191508051906020019080838360005b8381101561018f578082015181840152602081019050610174565b50505050905090810190601f1680156101bc5780820380516001836020036101000a031916815260200191505b509250505060405180910390f35b3480156101d657600080fd5b50610203600480360360208110156101ed57600080fd5b81019080803590602001909291905050506109ad565b60405180861515151581526020018581526020018473ffffffffffffffffffffffffffffffffffffffff1673ffffffffffffffffffffffffffffffffffffffff1681526020018381526020018273ffffffffffffffffffffffffffffffffffffffff1673ffffffffffffffffffffffffffffffffffffffff1681526020019550505050505060405180910390f35b6102bd600480360360208110156102a757600080fd5b8101908080359060200190929190505050610a30565b005b3480156102cb57600080fd5b506102d4610ced565b6040518082815260200191505060405180910390f35b3480156102f657600080fd5b5061032d6004803603604081101561030d57600080fd5b810190808035906020019092919080359060200190929190505050610cf3565b005b34801561033b57600080fd5b5061034461127a565b604051808260ff1660ff16815260200191505060405180910390f35b34801561036c57600080fd5b5061037561128d565b005b34801561038357600080fd5b5061038c611360565b6040518080602001828103825283818151815260200191508051906020019080838360005b838110156103cc5780820151818401526020810190506103b1565b50505050905090810190601f1680156103f95780820380516001836020036101000a031916815260200191505b509250505060405180910390f35b34801561041357600080fd5b506104406004803603602081101561042a57600080fd5b81019080803590602001909291905050506113fe565b604051808273ffffffffffffffffffffffffffffffffffffffff1673ffffffffffffffffffffffffffffffffffffffff16815260200191505060405180910390f35b34801561048e57600080fd5b50610497611431565b6040518080602001828103825283818151815260200191508051906020019080838360005b838110156104d75780820151818401526020810190506104bc565b50505050905090810190601f1680156105045780820380516001836020036101000a031916815260200191505b509250505060405180910390f35b34801561051e57600080fd5b5061054b6004803603602081101561053557600080fd5b81019080803590602001909291905050506114cf565b60405180851515151581526020018481526020018373ffffffffffffffffffffffffffffffffffffffff1673ffffffffffffffffffffffffffffffffffffffff16815260200182815260200194505050505060405180910390f35b3480156105b257600080fd5b506105f5600480360360208110156105c957600080fd5b81019080803573ffffffffffffffffffffffffffffffffffffffff16906020019092919050505061152c565b6040518082815260200191505060405180910390f35b6106376004803603602081101561062157600080fd5b8101908080359060200190929190505050611544565b005b34801561064557600080fd5b506106926004803603604081101561065c57600080fd5b81019080803573ffffffffffffffffffffffffffffffffffffffff16906020019092919080359060200190929190505050611cb8565b005b3480156106a057600080fd5b506106a961211c565b6040518080602001828103825283818151815260200191508051906020019080838360005b838110156106e95780820151818401526020810190506106ce565b50505050905090810190601f1680156107165780820380516001836020036101000a031916815260200191505b509250505060405180910390f35b34801561073057600080fd5b5061075d6004803603602081101561074757600080fd5b81019080803590602001909291905050506121ba565b005b34801561076b57600080fd5b506107c26004803603606081101561078257600080fd5b810190808035906020019092919080359060200190929190803573ffffffffffffffffffffffffffffffffffffffff169060200190929190505050612489565b005b3480156107d057600080fd5b506107d9612684565b6040518082815260200191505060405180910390f35b3480156107fb57600080fd5b506108326004803603604081101561081257600080fd5b81019080803590602001909291908035906020019092919050505061268a565b005b34801561084057600080fd5b5061086d6004803603602081101561085757600080fd5b8101908080359060200190929190505050612886565b005b34801561087b57600080fd5b506108be6004803603602081101561089257600080fd5b81019080803573ffffffffffffffffffffffffffffffffffffffff169060200190929190505050612a14565b6040518082815260200191505060405180910390f35b3480156108e057600080fd5b5061090d600480360360208110156108f757600080fd5b8101908080359060200190929190505050612a2c565b005b60038054600181600116156101000203166002900480601f0160208091040260200160405190810160405280929190818152602001828054600181600116156101000203166002900480156109a55780601f1061097a576101008083540402835291602001916109a5565b820191906000526020600020905b81548152906001019060200180831161098857829003601f168201915b505050505081565b600a6020528060005260406000206000915090508060000160009054906101000a900460ff16908060010154908060020160009054906101000a900473ffffffffffffffffffffffffffffffffffffffff16908060030154908060040160009054906101000a900473ffffffffffffffffffffffffffffffffffffffff16905085565b6006548110610a3e57600080fd5b600073ffffffffffffffffffffffffffffffffffffffff166008600083815260200190815260200160002060009054906101000a900473ffffffffffffffffffffffffffffffffffffffff1673ffffffffffffffffffffffffffffffffffffffff161415610aab57600080fd5b3373ffffffffffffffffffffffffffffffffffffffff166008600083815260200190815260200160002060009054906101000a900473ffffffffffffffffffffffffffffffffffffffff1673ffffffffffffffffffffffffffffffffffffffff161415610b1757600080fd5b6000341415610b2557600080fd5b6000600b6000838152602001908152602001600020905080600301543411610b4c57600080fd5b600081600301541115610bcf578060030154600c60008360020160009054906101000a900473ffffffffffffffffffffffffffffffffffffffff1673ffffffffffffffffffffffffffffffffffffffff1673ffffffffffffffffffffffffffffffffffffffff168152602001908152602001600020600082825401925050819055505b60405180608001604052806001151581526020018381526020013373ffffffffffffffffffffffffffffffffffffffff16815260200134815250600b600084815260200190815260200160002060008201518160000160006101000a81548160ff0219169083151502179055506020820151816001015560408201518160020160006101000a81548173ffffffffffffffffffffffffffffffffffffffff021916908373ffffffffffffffffffffffffffffffffffffffff160217905550606082015181600301559050503373ffffffffffffffffffffffffffffffffffffffff16827f5b859394fabae0c1ba88baffe67e751ab5248d2e879028b8c8d6897b0519f56a346040518082815260200191505060405180910390a35050565b60065481565b6006548210610d0157600080fd5b3373ffffffffffffffffffffffffffffffffffffffff166008600084815260200190815260200160002060009054906101000a900473ffffffffffffffffffffffffffffffffffffffff1673ffffffffffffffffffffffffffffffffffffffff1614610d6c57600080fd5b60003390506000600b60008581526020019081526020016000209050600081600301541415610d9a57600080fd5b8281600301541015610dab57600080fd5b8060020160009054906101000a900473ffffffffffffffffffffffffffffffffffffffff166008600086815260200190815260200160002060006101000a81548173ffffffffffffffffffffffffffffffffffffffff021916908373ffffffffffffffffffffffffffffffffffffffff160217905550600960008373ffffffffffffffffffffffffffffffffffffffff1673ffffffffffffffffffffffffffffffffffffffff1681526020019081526020016000206000815480929190600190039190505550600960008260020160009054906101000a900473ffffffffffffffffffffffffffffffffffffffff1673ffffffffffffffffffffffffffffffffffffffff1673ffffffffffffffffffffffffffffffffffffffff168152602001908152602001600020600081548092919060010191905055508060020160009054906101000a900473ffffffffffffffffffffffffffffffffffffffff1673ffffffffffffffffffffffffffffffffffffffff168273ffffffffffffffffffffffffffffffffffffffff167fddf252ad1be2c89b69c2b068fc378daa952ba7f163c4a11628f55a4df523b3ef60016040518082815260200191505060405180910390a36040518060a001604052806000151581526020018581526020018260020160009054906101000a900473ffffffffffffffffffffffffffffffffffffffff1673ffffffffffffffffffffffffffffffffffffffff16815260200160008152602001600073ffffffffffffffffffffffffffffffffffffffff16815250600a600086815260200190815260200160002060008201518160000160006101000a81548160ff0219169083151502179055506020820151816001015560408201518160020160006101000a81548173ffffffffffffffffffffffffffffffffffffffff021916908373ffffffffffffffffffffffffffffffffffffffff1602179055506060820151816003015560808201518160040160006101000a81548173ffffffffffffffffffffffffffffffffffffffff021916908373ffffffffffffffffffffffffffffffffffffffff1602179055509050506000816003015490506040518060800160405280600015158152602001868152602001600073ffffffffffffffffffffffffffffffffffffffff1681526020016000815250600b600087815260200190815260200160002060008201518160000160006101000a81548160ff0219169083151502179055506020820151816001015560408201518160020160006101000a81548173ffffffffffffffffffffffffffffffffffffffff021916908373ffffffffffffffffffffffffffffffffffffffff1602179055506060820151816003015590505080600c60008573ffffffffffffffffffffffffffffffffffffffff1673ffffffffffffffffffffffffffffffffffffffff168152602001908152602001600020600082825401925050819055508160020160009054906101000a900473ffffffffffffffffffffffffffffffffffffffff1673ffffffffffffffffffffffffffffffffffffffff168373ffffffffffffffffffffffffffffffffffffffff16867f58e5d5a525e3b40bc15abaa38b5882678db1ee68befd2f60bafe3a7fd06db9e385600301546040518082815260200191505060405180910390a45050505050565b600560009054906101000a900460ff1681565b6000600c60003373ffffffffffffffffffffffffffffffffffffffff1673ffffffffffffffffffffffffffffffffffffffff1681526020019081526020016000205490506000600c60003373ffffffffffffffffffffffffffffffffffffffff1673ffffffffffffffffffffffffffffffffffffffff168152602001908152602001600020819055503373ffffffffffffffffffffffffffffffffffffffff166108fc829081150290604051600060405180830381858888f1935050505015801561135c573d6000803e3d6000fd5b5050565b60008054600181600116156101000203166002900480601f0160208091040260200160405190810160405280929190818152602001828054600181600116156101000203166002900480156113f65780601f106113cb576101008083540402835291602001916113f6565b820191906000526020600020905b8154815290600101906020018083116113d957829003601f168201915b505050505081565b60086020528060005260406000206000915054906101000a900473ffffffffffffffffffffffffffffffffffffffff1681565b60028054600181600116156101000203166002900480601f0160208091040260200160405190810160405280929190818152602001828054600181600116156101000203166002900480156114c75780601f1061149c576101008083540402835291602001916114c7565b820191906000526020600020905b8154815290600101906020018083116114aa57829003601f168201915b505050505081565b600b6020528060005260406000206000915090508060000160009054906101000a900460ff16908060010154908060020160009054906101000a900473ffffffffffffffffffffffffffffffffffffffff16908060030154905084565b60096020528060005260406000206000915090505481565b6000600a6000838152602001908152602001600020905060065482106115d2576040517f08c379a00000000000000000000000000000000000000000000000000000000081526004018080602001828103825260178152602001807f50756e6b20696e646578206f7574206f662072616e676500000000000000000081525060200191505060405180910390fd5b8060000160009054906101000a900460ff16611656576040517f08c379a00000000000000000000000000000000000000000000000000000000081526004018080602001828103825260148152602001807f50756e6b206973206e6f7420666f722073616c6500000000000000000000000081525060200191505060405180910390fd5b600073ffffffffffffffffffffffffffffffffffffffff168160040160009054906101000a900473ffffffffffffffffffffffffffffffffffffffff1673ffffffffffffffffffffffffffffffffffffffff16148061170457503373ffffffffffffffffffffffffffffffffffffffff168160040160009054906101000a900473ffffffffffffffffffffffffffffffffffffffff1673ffffffffffffffffffffffffffffffffffffffff16145b611776576040517f08c379a00000000000000000000000000000000000000000000000000000000081526004018080602001828103825260118152602001807f576f6e27742073656c6c20746f20796f7500000000000000000000000000000081525060200191505060405180910390fd5b80600301543410156117f0576040517f08c379a00000000000000000000000000000000000000000000000000000000081526004018080602001828103825260128152602001807f53616c65207072696365206e6f74206d6574000000000000000000000000000081525060200191505060405180910390fd5b6008600083815260200190815260200160002060009054906101000a900473ffffffffffffffffffffffffffffffffffffffff1673ffffffffffffffffffffffffffffffffffffffff168160020160009054906101000a900473ffffffffffffffffffffffffffffffffffffffff1673ffffffffffffffffffffffffffffffffffffffff16146118e8576040517f08c379a00000000000000000000000000000000000000000000000000000000081526004018080602001828103825260178152602001807f53656c6c657220646f65736e2774206f776e2070756e6b00000000000000000081525060200191505060405180910390fd5b60008160020160009054906101000a900473ffffffffffffffffffffffffffffffffffffffff169050336008600085815260200190815260200160002060006101000a81548173ffffffffffffffffffffffffffffffffffffffff021916908373ffffffffffffffffffffffffffffffffffffffff160217905550600960008273ffffffffffffffffffffffffffffffffffffffff1673ffffffffffffffffffffffffffffffffffffffff1681526020019081526020016000206000815480929190600190039190505550600960003373ffffffffffffffffffffffffffffffffffffffff1673ffffffffffffffffffffffffffffffffffffffff168152602001908152602001600020600081548092919060010191905055503373ffffffffffffffffffffffffffffffffffffffff168173ffffffffffffffffffffffffffffffffffffffff167fddf252ad1be2c89b69c2b068fc378daa952ba7f163c4a11628f55a4df523b3ef60016040518082815260200191505060405180910390a3611a7183612a2c565b34600c60008373ffffffffffffffffffffffffffffffffffffffff1673ffffffffffffffffffffffffffffffffffffffff168152602001908152602001600020600082825401925050819055503373ffffffffffffffffffffffffffffffffffffffff168173ffffffffffffffffffffffffffffffffffffffff16847f58e5d5a525e3b40bc15abaa38b5882678db1ee68befd2f60bafe3a7fd06db9e3346040518082815260200191505060405180910390a46000600b600085815260200190815260200160002090503373ffffffffffffffffffffffffffffffffffffffff168160020160009054906101000a900473ffffffffffffffffffffffffffffffffffffffff1673ffffffffffffffffffffffffffffffffffffffff161415611cb2578060030154600c60003373ffffffffffffffffffffffffffffffffffffffff1673ffffffffffffffffffffffffffffffffffffffff168152602001908152602001600020600082825401925050819055506040518060800160405280600015158152602001858152602001600073ffffffffffffffffffffffffffffffffffffffff1681526020016000815250600b600086815260200190815260200160002060008201518160000160006101000a81548160ff0219169083151502179055506020820151816001015560408201518160020160006101000a81548173ffffffffffffffffffffffffffffffffffffffff021916908373ffffffffffffffffffffffffffffffffffffffff160217905550606082015181600301559050505b50505050565b3373ffffffffffffffffffffffffffffffffffffffff166008600083815260200190815260200160002060009054906101000a900473ffffffffffffffffffffffffffffffffffffffff1673ffffffffffffffffffffffffffffffffffffffff1614611d8c576040517f08c379a000000000000000000000000000000000000000000000000000000000815260040180806020018281038252601b8152602001807f5472616e73666572657220646f65736e2774206f776e2070756e6b000000000081525060200191505060405180910390fd5b6006548110611d9a57600080fd5b600a600082815260200190815260200160002060000160009054906101000a900460ff1615611dcd57611dcc81612a2c565b5b816008600083815260200190815260200160002060006101000a81548173ffffffffffffffffffffffffffffffffffffffff021916908373ffffffffffffffffffffffffffffffffffffffff160217905550600960003373ffffffffffffffffffffffffffffffffffffffff1673ffffffffffffffffffffffffffffffffffffffff1681526020019081526020016000206000815480929190600190039190505550600960008373ffffffffffffffffffffffffffffffffffffffff1673ffffffffffffffffffffffffffffffffffffffff168152602001908152602001600020600081548092919060010191905055508173ffffffffffffffffffffffffffffffffffffffff163373ffffffffffffffffffffffffffffffffffffffff167fddf252ad1be2c89b69c2b068fc378daa952ba7f163c4a11628f55a4df523b3ef60016040518082815260200191505060405180910390a38173ffffffffffffffffffffffffffffffffffffffff163373ffffffffffffffffffffffffffffffffffffffff167f05af636b70da6819000c49f85b21fa82081c632069bb626f30932034099107d8836040518082815260200191505060405180910390a36000600b600083815260200190815260200160002090508273ffffffffffffffffffffffffffffffffffffffff168160020160009054906101000a900473ffffffffffffffffffffffffffffffffffffffff1673ffffffffffffffffffffffffffffffffffffffff161415612117578060030154600c60008573ffffffffffffffffffffffffffffffffffffffff1673ffffffffffffffffffffffffffffffffffffffff168152602001908152602001600020600082825401925050819055506040518060800160405280600015158152602001838152602001600073ffffffffffffffffffffffffffffffffffffffff1681526020016000815250600b600084815260200190815260200160002060008201518160000160006101000a81548160ff0219169083151502179055506020820151816001015560408201518160020160006101000a81548173ffffffffffffffffffffffffffffffffffffffff021916908373ffffffffffffffffffffffffffffffffffffffff160217905550606082015181600301559050505b505050565b60048054600181600116156101000203166002900480601f0160208091040260200160405190810160405280929190818152602001828054600181600116156101000203166002900480156121b25780601f10612187576101008083540402835291602001916121b2565b820191906000526020600020905b81548152906001019060200180831161219557829003601f168201915b505050505081565b60065481106121c857600080fd5b600073ffffffffffffffffffffffffffffffffffffffff166008600083815260200190815260200160002060009054906101000a900473ffffffffffffffffffffffffffffffffffffffff1673ffffffffffffffffffffffffffffffffffffffff16141561223557600080fd5b3373ffffffffffffffffffffffffffffffffffffffff166008600083815260200190815260200160002060009054906101000a900473ffffffffffffffffffffffffffffffffffffffff1673ffffffffffffffffffffffffffffffffffffffff1614156122a157600080fd5b6000600b600083815260200190815260200160002090503373ffffffffffffffffffffffffffffffffffffffff168160020160009054906101000a900473ffffffffffffffffffffffffffffffffffffffff1673ffffffffffffffffffffffffffffffffffffffff161461231457600080fd5b3373ffffffffffffffffffffffffffffffffffffffff16827f6f30e1ee4d81dcc7a8a478577f65d2ed2edb120565960ac45fe7c50551c8793283600301546040518082815260200191505060405180910390a36000816003015490506040518060800160405280600015158152602001848152602001600073ffffffffffffffffffffffffffffffffffffffff1681526020016000815250600b600085815260200190815260200160002060008201518160000160006101000a81548160ff0219169083151502179055506020820151816001015560408201518160020160006101000a81548173ffffffffffffffffffffffffffffffffffffffff021916908373ffffffffffffffffffffffffffffffffffffffff160217905550606082015181600301559050503373ffffffffffffffffffffffffffffffffffffffff166108fc829081150290604051600060405180830381858888f19350505050158015612483573d6000803e3d6000fd5b50505050565b3373ffffffffffffffffffffffffffffffffffffffff166008600085815260200190815260200160002060009054906101000a900473ffffffffffffffffffffffffffffffffffffffff1673ffffffffffffffffffffffffffffffffffffffff16146124f457600080fd5b600654831061250257600080fd5b6040518060a001604052806001151581526020018481526020013373ffffffffffffffffffffffffffffffffffffffff1681526020018381526020018273ffffffffffffffffffffffffffffffffffffffff16815250600a600085815260200190815260200160002060008201518160000160006101000a81548160ff0219169083151502179055506020820151816001015560408201518160020160006101000a81548173ffffffffffffffffffffffffffffffffffffffff021916908373ffffffffffffffffffffffffffffffffffffffff1602179055506060820151816003015560808201518160040160006101000a81548173ffffffffffffffffffffffffffffffffffffffff021916908373ffffffffffffffffffffffffffffffffffffffff1602179055509050508073ffffffffffffffffffffffffffffffffffffffff16837f3c7b682d5da98001a9b8cbda6c647d2c63d698a4184fd1d55e2ce7b66f5d21eb846040518082815260200191505060405180910390a3505050565b60075481565b3373ffffffffffffffffffffffffffffffffffffffff166008600084815260200190815260200160002060009054906101000a900473ffffffffffffffffffffffffffffffffffffffff1673ffffffffffffffffffffffffffffffffffffffff16146126f557600080fd5b600654821061270357600080fd5b6040518060a001604052806001151581526020018381526020013373ffffffffffffffffffffffffffffffffffffffff168152602001828152602001600073ffffffffffffffffffffffffffffffffffffffff16815250600a600084815260200190815260200160002060008201518160000160006101000a81548160ff0219169083151502179055506020820151816001015560408201518160020160006101000a81548173ffffffffffffffffffffffffffffffffffffffff021916908373ffffffffffffffffffffffffffffffffffffffff1602179055506060820151816003015560808201518160040160006101000a81548173ffffffffffffffffffffffffffffffffffffffff021916908373ffffffffffffffffffffffffffffffffffffffff160217905550905050600073ffffffffffffffffffffffffffffffffffffffff16827f3c7b682d5da98001a9b8cbda6c647d2c63d698a4184fd1d55e2ce7b66f5d21eb836040518082815260200191505060405180910390a35050565b60006007541161289557600080fd5b600073ffffffffffffffffffffffffffffffffffffffff166008600083815260200190815260200160002060009054906101000a900473ffffffffffffffffffffffffffffffffffffffff1673ffffffffffffffffffffffffffffffffffffffff161461290157600080fd5b600654811061290f57600080fd5b336008600083815260200190815260200160002060006101000a81548173ffffffffffffffffffffffffffffffffffffffff021916908373ffffffffffffffffffffffffffffffffffffffff160217905550600960003373ffffffffffffffffffffffffffffffffffffffff1673ffffffffffffffffffffffffffffffffffffffff16815260200190815260200160002060008154809291906001019190505550600760008154809291906001900391905055503373ffffffffffffffffffffffffffffffffffffffff167f8a0e37b73a0d9c82e205d4d1a3ff3d0b57ce5f4d7bccf6bac03336dc101cb7ba826040518082815260200191505060405180910390a250565b600c6020528060005260406000206000915090505481565b3373ffffffffffffffffffffffffffffffffffffffff166008600083815260200190815260200160002060009054906101000a900473ffffffffffffffffffffffffffffffffffffffff1673ffffffffffffffffffffffffffffffffffffffff1614612a9757600080fd5b6006548110612aa557600080fd5b6040518060a001604052806000151581526020018281526020013373ffffffffffffffffffffffffffffffffffffffff16815260200160008152602001600073ffffffffffffffffffffffffffffffffffffffff16815250600a600083815260200190815260200160002060008201518160000160006101000a81548160ff0219169083151502179055506020820151816001015560408201518160020160006101000a81548173ffffffffffffffffffffffffffffffffffffffff021916908373ffffffffffffffffffffffffffffffffffffffff1602179055506060820151816003015560808201518160040160006101000a81548173ffffffffffffffffffffffffffffffffffffffff021916908373ffffffffffffffffffffffffffffffffffffffff160217905550905050807fb0e0a660b4e50f26f0b7ce75c24655fc76cc66e3334a54ff410277229fa10bd460405160405180910390a25056fea265627a7a72315820af333e58c53788289a1d1e0ec2195be0a010a7a63f9d0710813a8e722042674b64736f6c63430005100032",
  "source": "pragma solidity ^0.5.16;\n\ncontract CryptoFunkMarket {\n\n    // You can use this hash to verify the image file containing all the punks\n    // openssl dgst -sha256 <your-image-name.png\\jpg\\etc...>\n    string public imageHash;\n\n    address owner;\n\n    string public standard = 'CryptoPunks';\n    string public name;\n    string public symbol;\n    uint8 public decimals;\n    uint256 public totalSupply;\n    uint public punksRemainingToAssign = 0;\n\n    //mapping (address => uint) public addressToPunkIndex;\n    mapping (uint => address) public punkIndexToAddress;\n\n    /* This creates an array with all balances */\n    mapping (address => uint256) public balanceOf;\n\n    struct Offer {\n        bool isForSale;\n        uint punkIndex;\n        address seller;\n        uint minValue;          // in ether\n        address onlySellTo;     // specify to sell only to a specific person\n    }\n\n    struct Bid {\n        bool hasBid;\n        uint punkIndex;\n        address bidder;\n        uint value;\n    }\n\n    // A record of punks that are offered for sale at a specific minimum value, and perhaps to a specific person\n    mapping (uint => Offer) public punksOfferedForSale;\n\n    // A record of the highest punk bid\n    mapping (uint => Bid) public punkBids;\n\n    mapping (address => uint) public pendingWithdrawals;\n\n    event Assign(address indexed to, uint256 punkIndex);\n    event Transfer(address indexed from, address indexed to, uint256 value);\n    event PunkTransfer(address indexed from, address indexed to, uint256 punkIndex);\n    event PunkOffered(uint indexed punkIndex, uint minValue, address indexed toAddress);\n    event PunkBidEntered(uint indexed punkIndex, uint value, address indexed fromAddress);\n    event PunkBidWithdrawn(uint indexed punkIndex, uint value, address indexed fromAddress);\n    event PunkBought(uint indexed punkIndex, uint value, address indexed fromAddress, address indexed toAddress);\n    event PunkNoLongerForSale(uint indexed punkIndex);\n\n    /* Initializes contract with initial supply tokens to the creator of the contract */\n    constructor(string memory _name, string memory _symbol, string memory _imageHash, uint256 _totalSupply) public payable {\n        //        balanceOf[msg.sender] = initialSupply;              // Give the creator all initial tokens\n        owner = msg.sender;\n        totalSupply = _totalSupply;                        // Update total supply\n        punksRemainingToAssign = totalSupply;\n        name = _name;                                   // Set the name for display purposes\n        symbol = _symbol;                               // Set the symbol for display purposes\n        decimals = 0;                                       // Amount of decimals for display purposes\n        imageHash = _imageHash;\n    }\n\n    function getPunk(uint punkIndex) public {\n        require (punksRemainingToAssign > 0);\n        require (punkIndexToAddress[punkIndex] == address(0));\n        require (punkIndex < totalSupply);\n        punkIndexToAddress[punkIndex] = msg.sender;\n        balanceOf[msg.sender]++;\n        punksRemainingToAssign--;\n        emit Assign(msg.sender, punkIndex);\n    }\n\n    // Transfer ownership of a punk to another user without requiring payment\n    function transferPunk(address to, uint punkIndex) public {\n        require (punkIndexToAddress[punkIndex] == msg.sender, \"Transferer doesn't own punk\");\n        require (punkIndex < totalSupply);\n        if (punksOfferedForSale[punkIndex].isForSale) {\n            punkNoLongerForSale(punkIndex);\n        }\n        punkIndexToAddress[punkIndex] = to;\n        balanceOf[msg.sender]--;\n        balanceOf[to]++;\n        emit Transfer(msg.sender, to, 1);\n        emit PunkTransfer(msg.sender, to, punkIndex);\n        // Check for the case where there is a bid from the new owner and refund it.\n        // Any other bid can stay in place.\n        Bid storage bid = punkBids[punkIndex];\n        if (bid.bidder == to) {\n            // Kill bid and refund value\n            pendingWithdrawals[to] += bid.value;\n            punkBids[punkIndex] = Bid(false, punkIndex, address(0), 0);\n        }\n    }\n\n    function punkNoLongerForSale(uint punkIndex) public {\n        require (punkIndexToAddress[punkIndex] == msg.sender);\n        require (punkIndex < totalSupply);\n        punksOfferedForSale[punkIndex] = Offer(false, punkIndex, msg.sender, 0, address(0));\n        emit PunkNoLongerForSale(punkIndex);\n    }\n\n    function offerPunkForSale(uint punkIndex, uint minSalePriceInWei) public {\n        require (punkIndexToAddress[punkIndex] == msg.sender);\n        require (punkIndex < totalSupply);\n        punksOfferedForSale[punkIndex] = Offer(true, punkIndex, msg.sender, minSalePriceInWei, address(0));\n        emit PunkOffered(punkIndex, minSalePriceInWei, address(0));\n    }\n\n    function offerPunkForSaleToAddress(uint punkIndex, uint minSalePriceInWei, address toAddress) public {\n        require (punkIndexToAddress[punkIndex] == msg.sender);\n        require (punkIndex < totalSupply);\n        punksOfferedForSale[punkIndex] = Offer(true, punkIndex, msg.sender, minSalePriceInWei, toAddress);\n        emit PunkOffered(punkIndex, minSalePriceInWei, toAddress);\n    }\n\n    function buyPunk(uint punkIndex) public payable {\n        Offer storage offer = punksOfferedForSale[punkIndex];\n        require (punkIndex < totalSupply, 'Punk index out of range');\n        require (offer.isForSale, \"Punk is not for sale\");                // punk not actually for sale\n        require (offer.onlySellTo == address(0) || offer.onlySellTo == msg.sender, \"Won't sell to you\");  // punk not supposed to be sold to this user\n        require (msg.value >= offer.minValue, \"Sale price not met\");      // Didn't send enough ETH\n        require (offer.seller == punkIndexToAddress[punkIndex], \"Seller doesn't own punk\"); // Seller no longer owner of punk\n\n        address seller = offer.seller;\n\n        punkIndexToAddress[punkIndex] = msg.sender;\n        balanceOf[seller]--;\n        balanceOf[msg.sender]++;\n        emit Transfer(seller, msg.sender, 1);\n\n        punkNoLongerForSale(punkIndex);\n        pendingWithdrawals[seller] += msg.value;\n        emit PunkBought(punkIndex, msg.value, seller, msg.sender);\n\n        // Check for the case where there is a bid from the new owner and refund it.\n        // Any other bid can stay in place.\n        Bid storage bid = punkBids[punkIndex];\n        if (bid.bidder == msg.sender) {\n            // Kill bid and refund value\n            pendingWithdrawals[msg.sender] += bid.value;\n            punkBids[punkIndex] = Bid(false, punkIndex, address(0), 0);\n        }\n    }\n\n    function withdraw() public {\n        uint amount = pendingWithdrawals[msg.sender];\n        // Remember to zero the pending refund before\n        // sending to prevent re-entrancy attacks\n        pendingWithdrawals[msg.sender] = 0;\n        msg.sender.transfer(amount);\n    }\n\n    function enterBidForPunk(uint punkIndex) public payable {\n        require (punkIndex < totalSupply);\n        require (punkIndexToAddress[punkIndex] != address(0));\n        require (punkIndexToAddress[punkIndex] != msg.sender);\n        require (msg.value != 0);\n        Bid storage existing = punkBids[punkIndex];\n        require (msg.value > existing.value);\n        if (existing.value > 0) {\n            // Refund the failing bid\n            pendingWithdrawals[existing.bidder] += existing.value;\n        }\n        punkBids[punkIndex] = Bid(true, punkIndex, msg.sender, msg.value);\n        emit PunkBidEntered(punkIndex, msg.value, msg.sender);\n    }\n\n    function acceptBidForPunk(uint punkIndex, uint minPrice) public {\n        require (punkIndex < totalSupply);\n        require (punkIndexToAddress[punkIndex] == msg.sender);\n        address seller = msg.sender;\n        Bid storage bid = punkBids[punkIndex];\n        require (bid.value != 0);\n        require (bid.value >= minPrice);\n\n        punkIndexToAddress[punkIndex] = bid.bidder;\n        balanceOf[seller]--;\n        balanceOf[bid.bidder]++;\n        emit Transfer(seller, bid.bidder, 1);\n\n        punksOfferedForSale[punkIndex] = Offer(false, punkIndex, bid.bidder, 0, address(0));\n        uint amount = bid.value;\n        punkBids[punkIndex] = Bid(false, punkIndex, address(0), 0);\n        pendingWithdrawals[seller] += amount;\n        emit PunkBought(punkIndex, bid.value, seller, bid.bidder);\n    }\n\n    function withdrawBidForPunk(uint punkIndex) public {\n        require (punkIndex < totalSupply);\n        require (punkIndexToAddress[punkIndex] != address(0));\n        require (punkIndexToAddress[punkIndex] != msg.sender);\n        Bid storage bid = punkBids[punkIndex];\n        require (bid.bidder == msg.sender);\n        emit PunkBidWithdrawn(punkIndex, bid.value, msg.sender);\n        uint amount = bid.value;\n        punkBids[punkIndex] = Bid(false, punkIndex, address(0), 0);\n        // Refund the bid money\n        msg.sender.transfer(amount);\n    }\n\n}",
  "sourcePath": "/home/chrisb/dev/crypto/eth/crypto-funk-app/contracts/CryptoFunkMarket.sol",
  "compiler": {
    "name": "solc",
    "version": "0.5.16+commit.9c3226ce.Emscripten.clang"
  },
  "schemaVersion": "3.4.1",
  "updatedAt": "2021-08-10T00:07:20.940Z",
  "networkType": "ethereum",
  "devdoc": {
    "methods": {}
  },
  "userdoc": {
    "methods": {}
  }
}